S0140000313730353036375F636F64652E73726563AC
S11300000C942A000C9447000C9447000C9449006B
S11300100C9447000C9447000C9447000C94470040
S11300200C9447000C9447000C9447000C94470030
S11300300C9447000C9447000C9447000C94470020
S11300400C9447000C9447000C9447000C94470010
S11300500C94470011241FBECFE5D8E0DEBFCDBF0E
S113006010E0A0E6B0E0E4EBF1E002C005900D92F0
S1130070A237B107D9F720E0A2E7B0E001C01D9292
S1130080A437B207E1F70E9462000C94D8000C94E4
S113009000001F920F920FB60F9211248F939F931B
S11300A08091600090916100919581959109909360
S11300B06100809360009F918F910F900FBE0F900D
S11300C01F9018958FEF8ABB81BB17BA80E28BBF54
S11300D084B78F7B84BF789480E090E04AE650E058
S11300E002C080E090E020916000309161002130F6
S11300F03105C1F4FC01E659FF4F208120952BBB4B
S1130100FC01EE59FF4F208122BBE3EFF1E0319770
S1130110F1F700C0000001968830910524F380E0D7
S113012090E0E1CF20916000309161002F3F3F4F7C
S1130130D1F6E2E6F0E02081220F211D2193E4179D
S1130140F507C9F7109273001092720020917200A3
S1130150309173002639310520F6FC01E659FF4F32
S1130160208120952BBBFC01EE59FF4F208122BB3F
S1130170E3EFF1E03197F1F700C000000196883019
S1130180910511F480E090E02091720030917300A9
S11301902F5F3F4F309373002093720020917200C1
S11301A03091730026393105C0F280E090E09BCF96
S10701B0F894FFCFED
S11301B401003C6260606060623C0102040810203B
S10501C4408075
S9030000FC
